:02000000602876
:10000800F000030EF1000B1921200B185220710E7D
:100018008300F00E700E090082073F3406345B340B
:100028004F3466346D347D3407347F346734773425
:100038007C3439345E34793471340B11F6308100F4
:10004800F20AF30A06118611720882072C28322850
:1000580005080F391020870086153928050E0F3935
:10006800102087000615FF30F200061286120613CC
:1000780073088207412846284B28780810208800F2
:1000880006170800760810208800861608007708EA
:10009800102088000616FF30F30008000B107408C3
:1000A800F5000608F40075185B287418850AF51819
:1000B8000800F418850308008316031788018901CE
:1000C80083160313850187018801860106148614A7
:1000D8008113811281110115811401148B178B165C
:1000E8008B151614961483128501860187018801E1
:1000F800F201F301F63081000508F9008420802818
:100108008B13F701F601F80164307902031C8F287C
:10011800F900F70A88280A307902031C9628F900A2
:0C012800F60A8F287908F8008B170800F1
:04400E00D420FF3F7C
:00000001FF
